:100000000C9434000C9451000C9451000C94510049
:100010000C9451000C9451000C9451000C9451001C
:100020000C9451000C9451000C9451000C9451000C
:100030000C9451000C9451000C9451000C945100FC
:100040000C9451000C9451000C9451000C945100EC
:100050000C9451000C9451000C9451000C945100DC
:100060000C9451000C94510011241FBECFEFD8E026
:10007000DEBFCDBF11E0A0E0B1E0E6EDFAE002C0E6
:1000800005900D92A63CB107D9F721E0A6ECB1E0AE
:1000900001C01D92AA3CB207E1F70E9466010C94D0
:1000A00069050C940000CF93DF930E94F50186E070
:1000B0000E94F90180E00E94F901D82F80E00E949F
:1000C000F901C82F0E94F701DF708C2F90E09D2B63
:1000D000DF91CF91089517B8AAE7B0E08C918760BF
:1000E0008C93ECE7F0E080818F778083808180645F
:1000F00080838081806280838C9180688C938081F2
:10010000807F80838081816080838C9180648C93E8
:100110002FEF81EE94E0215080409040E1F700C045
:100120000000089580E480937A00EAE7F0E080819F
:1001300084FFFDCF80917900829586958770089520
:10014000CF92DF92EF92FF92CF93DF936B017C010E
:10015000EA018CE090E00E944804FC01C082D18258
:10016000E282F382488159816A817B81448355838D
:10017000668377834C815D816E817F814087518763
:1001800062877387DF91CF91FF90EF90DF90CF90E0
:1001900008952F923F924F925F926F927F928F922B
:1001A0009F92AF92BF92CF92DF92EF92FF920F9306
:1001B0001F93CF93DF93FC01C42FD0E08480958000
:1001C000A680B780C084D184E284F3841E01220C0F
:1001D000331C81010C0F1D1F000F111F000F111F79
:1001E0000A5F1E4F2081318142815381F801608175
:1001F0007181828193810E94DB032B013C01F80114
:100200002481358146815781C501B4010E94DB03F9
:100210009B01AC01C301B2010E9439022B013C01D8
:10022000F8012085318542855385C701B6010E94BA
:10023000DB039B01AC01C301B2010E9439022B0117
:100240003C01F101EC0FFD1FEE0FFF1FEE0FFF1F32
:10025000EA59FE4F2481358146815781C501B40199
:100260000E94DB039B01AC01C301B2010E94380272
:100270004B015C01C20DD31DCC0FDD1FCC0FDD1F68
:10028000CA59DE4F88859985AA85BB85BC01CD01F9
:100290009058A70196010E94DB039B01AC01C501A8
:1002A000B4010E943902DF91CF911F910F91FF900D
:1002B000EF90DF90CF90BF90AF909F908F907F9006
:1002C0006F905F904F903F902F9008950E9417027B
:1002D0000E94E4010E946B000E94FF018CE090E00C
:1002E0000E9448048C018CE090E00E944804D82FC2
:1002F000D92ED801E82FF92FC8010C961D921D9216
:100300001D921D921192119211921192A817B90784
:10031000A9F70F2EEE24EA94F3E0FF2EF02DCC2463
:10032000CA940E949200C82F0E945300BC01990FEA
:10033000880B990B0E944F0320E030EC4FE754E408
:100340000E94A50223E333E343E550E40E94DB036C
:10035000A8010E94A0008C014C2F6D2F7D2D0E94C2
:10036000C9000E941E03C62F70E080E090E00E944A
:100370004D034D2F5D2D0E94A000D82FD92E6C2F3C
:1003800070E080E090E00E944F0323E333E343E515
:1003900050E40E94A5020E941703E69E9001E79E8A
:1003A000300DF69E300D1124213084E0380714F40E
:1003B000822F01C08C2D0E9411028FE19EE40197D3
:1003C000F1F700C00000ADCF84B18C6284B92498ED
:1003D00081E58CBD2A9A2FEF89E698E12150804073
:1003E0009040E1F700C0000008952A9808952A9AE5
:1003F00008958EBD0DB407FEFDCF8EB50895219AE8
:10040000E1E8F0E080818A608083A0E8B0E08C9130
:1004100081608C938C9180688C93808181608083D3
:10042000089590E090938900809388000895109239
:10043000C50087E68093C400E2ECF0E080818F7312
:10044000808380818F7C80838081877F808380818F
:1004500086608083E1ECF0E080818B7F8083A0EC7C
:10046000B0E08C918D7F8C9380818861808308952A
:100470005058BB27AA270E9450020C94A1030E9447
:10048000930338F00E949A0320F039F49F3F19F447
:1004900026F40C9490030EF4E095E7FB0C948A0389
:1004A000E92F0E94B20358F3BA1762077307840753
:1004B000950720F079F4A6F50C94D4030EF4E0959A
:1004C0000B2EBA2FA02D0B01B90190010C01CA010E
:1004D000A0011124FF27591B99F0593F50F4503EB9
:1004E00068F11A16F040A22F232F342F4427585FAB
:1004F000F3CF469537952795A795F0405395C9F7C3
:100500007EF41F16BA0B620B730B840BBAF091507A
:10051000A1F0FF0FBB1F661F771F881FC2F70EC019
:10052000BA0F621F731F841F48F4879577956795EC
:10053000B795F7959E3F08F0B0CF9395880F08F0D8
:100540009927EE0F9795879508950E94B9020C940C
:10055000A1030E949A0358F00E94930340F029F4EB
:100560005F3F29F00C948A0351110C94D5030C942D
:1005700090030E94B20368F39923B1F3552391F3DA
:10058000951B550BBB27AA2762177307840738F002
:100590009F5F5F4F220F331F441FAA1FA9F335D05F
:1005A0000E2E3AF0E0E832D091505040E695001C13
:1005B000CAF72BD0FE2F29D0660F771F881FBB1FCD
:1005C000261737074807AB07B0E809F0BB0B802DAB
:1005D000BF01FF2793585F4F3AF09E3F510578F0D7
:1005E0000C948A030C94D5035F3FE4F3983ED4F354
:1005F000869577956795B795F7959F5FC9F7880FAB
:10060000911D9695879597F90895E1E0660F771FFC
:10061000881FBB1F621773078407BA0720F0621B8D
:10062000730B840BBA0BEE1F88F7E09508950E94B8
:100630001E036894B1110C94D50308950E94BA0367
:1006400088F09F5798F0B92F9927B751B0F0E1F093
:10065000660F771F881F991F1AF0BA95C9F714C043
:10066000B13091F00E94D403B1E008950C94D4030A
:10067000672F782F8827B85F39F0B93FCCF386957C
:1006800077956795B395D9F73EF4909580957095D9
:1006900061957F4F8F4F9F4F0895E89409C097FB56
:1006A0003EF490958095709561957F4F8F4F9F4F49
:1006B0009923A9F0F92F96E9BB279395F69587958D
:1006C00077956795B795F111F8CFFAF4BB0F11F450
:1006D00060FF1BC06F5F7F4F8F4F9F4F16C08823F7
:1006E00011F096E911C0772321F09EE8872F762F2D
:1006F00005C0662371F096E8862F70E060E02AF06E
:100700009A95660F771F881FDAF7880F9695879559
:1007100097F9089597F99F6780E870E060E0089581
:100720009FEF80EC089500240A9416161706180609
:100730000906089500240A941216130614060506E5
:100740000895092E0394000C11F4882352F0BB0F76
:1007500040F4BF2B11F460FF04C06F5F7F4F8F4FD9
:100760009F4F089557FD9058440F551F59F05F3F14
:1007700071F04795880F97FB991F61F09F3F79F0C3
:1007800087950895121613061406551FF2CF469545
:10079000F1DF08C0161617061806991FF1CF8695C7
:1007A0007105610508940895E894BB2766277727AB
:1007B000CB0197F908950E94EE030C94A1030E94C7
:1007C000930338F00E949A0320F0952311F00C94C3
:1007D0008A030C94900311240C94D5030E94B20355
:1007E00070F3959FC1F3950F50E0551F629FF00184
:1007F000729FBB27F00DB11D639FAA27F00DB11D9D
:10080000AA1F649F6627B00DA11D661F829F222725
:10081000B00DA11D621F739FB00DA11D621F839FAC
:10082000A00D611D221F749F3327A00D611D231F82
:10083000849F600D211D822F762F6A2F11249F57D0
:1008400050409AF0F1F088234AF0EE0FFF1FBB1FD3
:10085000661F771F881F91505040A9F79E3F510592
:1008600080F00C948A030C94D5035F3FE4F3983E28
:10087000D4F3869577956795B795F795E7959F5F3C
:10088000C1F7FE2B880F911D9695879597F90895CE
:100890000F931F93CF93DF938230910510F482E082
:1008A00090E0E091C801F091C90120E030E0A0E0C3
:1008B000B0E0309719F140815181028113814817CE
:1008C0005907C8F08417950769F4109731F012960C
:1008D0000C93129713961C9327C00093C801109392
:1008E000C90122C02115310519F04217530718F428
:1008F0009A01BD01EF01DF01F801DBCF21153105C0
:10090000F9F0281B390B2430310580F48A819B8152
:100910006115710521F0FB019383828304C09093DC
:10092000C9018093C801FE01329644C0FE01E20F66
:10093000F31F8193919322503109398328833AC060
:100940002091C6013091C701232B41F4209102016F
:10095000309103013093C7012093C601209100011B
:10096000309101012115310541F42DB73EB7409179
:10097000040150910501241B350BE091C601F09153
:10098000C701E217F307A0F42E1B3F0B2817390706
:1009900078F0AC014E5F5F4F2417350748F04E0FDB
:1009A0005F1F5093C7014093C6018193919302C08A
:1009B000E0E0F0E0CF01DF91CF911F910F9108951A
:1009C000CF93DF93009709F481C0FC013297138223
:1009D0001282A091C801B091C901109781F42081C1
:1009E0003181820F931F2091C6013091C7012817D2
:1009F000390751F5F093C701E093C60167C0ED01D7
:100A000020E030E0CE17DF0740F44A815B819E0191
:100A100041155105F1F0EA01F5CFD383C28340813E
:100A20005181840F951FC817D90759F4888199817E
:100A3000840F951F0296918380838A819B81938383
:100A400082832115310529F4F093C901E093C8018F
:100A50003DC0E901FB83EA8349915991C40FD51F39
:100A6000EC17FD0761F480819181840F951F029638
:100A7000E90199838883828193819B838A83E0E063
:100A8000F0E012968D919C911397009719F0FD015B
:100A9000DC01F7CF8D919C9111979D012E5F3F4F07
:100AA000820F931F2091C6013091C7012817390783
:100AB00069F4309729F41092C9011092C80102C05C
:100AC00013821282B093C701A093C601DF91CF9128
:060AD0000895F894FFCF29
:100AD6000000CA0120004D158C3C000000004D1599
:100AE6008CBCB9FC073D00000000B9FC07BDA69B05
:100AF600443D00000000A69B44BDB5157B3D0000AB
:100B06000000B5157BBD2B18953D000000002B1885
:100B160095BDC3F5A83D00000000C3F5A8BD5986E4
:100B2600B83D000000005986B8BDEFC9C33D0000BE
:100B36000000EFC9C3BD0000803F5986F8BFAB3E39
:100B4600773F0000803F5A64EBBF69006F3F0000AB
:100B5600803FA323D9BF8B6C673F0000803F0A68A4
:100B6600C2BF499D603F0000803F67D5A7BF68B3FD
:100B76005A3F0000803F55308ABF8FC2553F000064
:100B8600803FD88153BF6ADE513F0000803FA01AE4
:060B96000FBF12144F3FD7
:00000001FF
